{
  "address": "0xBDf6C6f4bB810BC48ECe781ED8377e7692843497",
  "abi": [
    {
      "inputs": [
        {
          "internalType": "address",
          "name": "other",
          "type": "address"
        },
        {
          "internalType": "address",
          "name": "ofdAddress",
          "type": "address"
        },
        {
          "internalType": "uint256",
          "name": "limit_",
          "type": "uint256"
        }
      ],
      "stateMutability": "nonpayable",
      "type": "constructor"
    },
    {
      "inputs": [
        {
          "internalType": "uint256",
          "name": "time",
          "type": "uint256"
        },
        {
          "internalType": "uint256",
          "name": "expiration",
          "type": "uint256"
        }
      ],
      "name": "Expired",
      "type": "error"
    },
    {
      "inputs": [
        {
          "internalType": "uint256",
          "name": "amount",
          "type": "uint256"
        },
        {
          "internalType": "uint256",
          "name": "limit",
          "type": "uint256"
        }
      ],
      "name": "Limit",
      "type": "error"
    },
    {
      "inputs": [
        {
          "internalType": "address",
          "name": "token",
          "type": "address"
        }
      ],
      "name": "UnsupportedToken",
      "type": "error"
    },
    {
      "inputs": [
        {
          "internalType": "uint256",
          "name": "amount",
          "type": "uint256"
        }
      ],
      "name": "burn",
      "outputs": [],
      "stateMutability": "nonpayable",
      "type": "function"
    },
    {
      "inputs": [
        {
          "internalType": "address",
          "name": "target",
          "type": "address"
        },
        {
          "internalType": "uint256",
          "name": "amount",
          "type": "uint256"
        }
      ],
      "name": "burnAndSend",
      "outputs": [],
      "stateMutability": "nonpayable",
      "type": "function"
    },
    {
      "inputs": [],
      "name": "horizon",
      "outputs": [
        {
          "internalType": "uint256",
          "name": "",
          "type": "uint256"
        }
      ],
      "stateMutability": "view",
      "type": "function"
    },
    {
      "inputs": [],
      "name": "limit",
      "outputs": [
        {
          "internalType": "uint256",
          "name": "",
          "type": "uint256"
        }
      ],
      "stateMutability": "view",
      "type": "function"
    },
    {
      "inputs": [
        {
          "internalType": "uint256",
          "name": "amount",
          "type": "uint256"
        }
      ],
      "name": "mint",
      "outputs": [],
      "stateMutability": "nonpayable",
      "type": "function"
    },
    {
      "inputs": [
        {
          "internalType": "address",
          "name": "target",
          "type": "address"
        },
        {
          "internalType": "uint256",
          "name": "amount",
          "type": "uint256"
        }
      ],
      "name": "mintTo",
      "outputs": [],
      "stateMutability": "nonpayable",
      "type": "function"
    },
    {
      "inputs": [],
      "name": "minted",
      "outputs": [
        {
          "internalType": "uint256",
          "name": "",
          "type": "uint256"
        }
      ],
      "stateMutability": "view",
      "type": "function"
    },
    {
      "inputs": [],
      "name": "ofd",
      "outputs": [
        {
          "internalType": "contract IOracleFreeDollar",
          "name": "",
          "type": "address"
        }
      ],
      "stateMutability": "view",
      "type": "function"
    },
    {
      "inputs": [],
      "name": "usd",
      "outputs": [
        {
          "internalType": "contract IERC20",
          "name": "",
          "type": "address"
        }
      ],
      "stateMutability": "view",
      "type": "function"
    }
  ],
  "transactionHash": "0xca80e54e95bc2c934aa61068aeae3e1332cd2e2580ee4f8b52669910696206b1",
  "args": [
    "0x4096831dC711C1A20aC011FBf0AA90A6c56dcF55",
    "0xFe00054AF44E24f0B4bd49b1A2d2984C4264aabE",
    "10000000000000000000000000"
  ],
  "numDeployments": 1,
  "solcInputHash": "9d70238f764b0c28341293c17b4cbfd7",
  "bytecode": "0x61010060405234801561001157600080fd5b506040516107653803806107658339810160408190526100309161007e565b6001600160a01b03808416608052821660a052610051426301dfe2006100ba565b60c05260e0525050600080556100e1565b80516001600160a01b038116811461007957600080fd5b919050565b60008060006060848603121561009357600080fd5b61009c84610062565b92506100aa60208501610062565b9150604084015190509250925092565b808201808211156100db57634e487b7160e01b600052601160045260246000fd5b92915050565b60805160a05160c05160e0516106146101516000396000818161012e015281816104bb01526104f6015260008181609d015281816103b201526103ed015260008181610194015281816102a50152610444015260008181610155015281816101e6015261032501526106146000f3fe608060405234801561001057600080fd5b50600436106100935760003560e01c80639e41b44d116100665780639e41b44d14610103578063a0712d6814610116578063a4d66daf14610129578063d63a6ccd14610150578063f61d52e61461018f57600080fd5b80631ce832b51461009857806342966c68146100d2578063449a52f8146100e75780634f02c420146100fa575b600080fd5b6100bf7f000000000000000000000000000000000000000000000000000000000000000081565b6040519081526020015b60405180910390f35b6100e56100e0366004610522565b6101b6565b005b6100e56100f536600461053b565b6101c4565b6100bf60005481565b6100e561011136600461053b565b61026a565b6100e5610124366004610522565b610275565b6100bf7f000000000000000000000000000000000000000000000000000000000000000081565b6101777f000000000000000000000000000000000000000000000000000000000000000081565b6040516001600160a01b0390911681526020016100c9565b6101777f000000000000000000000000000000000000000000000000000000000000000081565b6101c133338361027f565b50565b6040516323b872dd60e01b8152336004820152306024820152604481018290527f00000000000000000000000000000000000000000000000000000000000000006001600160a01b0316906323b872dd906064016020604051808303816000875af1158015610237573d6000803e3d6000fd5b505050506040513d601f19601f8201168201806040525081019061025b9190610573565b5061026682826103b0565b5050565b61026633838361027f565b6101c133826101c4565b60405163079cc67960e41b81526001600160a01b038481166004830152602482018390527f000000000000000000000000000000000000000000000000000000000000000016906379cc679090604401600060405180830381600087803b1580156102e957600080fd5b505af11580156102fd573d6000803e3d6000fd5b505060405163a9059cbb60e01b81526001600160a01b038581166004830152602482018590527f000000000000000000000000000000000000000000000000000000000000000016925063a9059cbb91506044016020604051808303816000875af1158015610370573d6000803e3d6000fd5b505050506040513d601f19601f820116820180604052508101906103949190610573565b50806000808282546103a691906105b2565b9091555050505050565b7f000000000000000000000000000000000000000000000000000000000000000042111561041e5760405163aa2fd92560e01b81524260048201527f000000000000000000000000000000000000000000000000000000000000000060248201526044015b60405180910390fd5b6040516340c10f1960e01b81526001600160a01b038381166004830152602482018390527f000000000000000000000000000000000000000000000000000000000000000016906340c10f1990604401600060405180830381600087803b15801561048857600080fd5b505af115801561049c573d6000803e3d6000fd5b50505050806000808282546104b191906105cb565b90915550506000547f0000000000000000000000000000000000000000000000000000000000000000101561026657604051631927a4b960e21b8152600481018290527f00000000000000000000000000000000000000000000000000000000000000006024820152604401610415565b60006020828403121561053457600080fd5b5035919050565b6000806040838503121561054e57600080fd5b82356001600160a01b038116811461056557600080fd5b946020939093013593505050565b60006020828403121561058557600080fd5b8151801515811461059557600080fd5b9392505050565b634e487b7160e01b600052601160045260246000fd5b818103818111156105c5576105c561059c565b92915050565b808201808211156105c5576105c561059c56fea2646970667358221220b6bba3b781d0f8437894c72a504624041ad4b42ff71ab3bf932db5a9b226649964736f6c63430008140033",
  "devdoc": {
    "author": "OracleFreeDollar",
    "kind": "dev",
    "methods": {
      "mintTo(address,uint256)": {
        "details": "This only works if an allowance for the source coins has been set and the caller has enough of them."
      }
    },
    "title": "Stable Coin Bridge",
    "version": 1
  },
  "userdoc": {
    "kind": "user",
    "methods": {
      "burn(uint256)": {
        "notice": "Convenience method for burnAndSend(msg.sender, amount)"
      },
      "burnAndSend(address,uint256)": {
        "notice": "Burn the indicated amount of OracleFreeDollar and send the same number of source coin to the caller."
      },
      "horizon()": {
        "notice": "The time horizon after which this bridge expires and needs to be replaced by a new contract."
      },
      "limit()": {
        "notice": "The maximum amount of outstanding converted source stablecoins."
      },
      "mint(uint256)": {
        "notice": "Convenience method for mint(msg.sender, amount)"
      },
      "mintTo(address,uint256)": {
        "notice": "Mint the target amount of OracleFreeDollars, taking the equal amount of source coins from the sender."
      }
    },
    "notice": "A minting contract for another United States Dollar stablecoin ('source stablecoin') that we trust.",
    "version": 1
  },
  "storageLayout": {
    "storage": [
      {
        "astId": 6298,
        "contract": "contracts/StablecoinBridge.sol:StablecoinBridge",
        "label": "minted",
        "offset": 0,
        "slot": "0",
        "type": "t_uint256"
      }
    ],
    "types": {
      "t_uint256": {
        "encoding": "inplace",
        "label": "uint256",
        "numberOfBytes": "32"
      }
    }
  }
}