{
  "address": "0xe7f1725E7734CE288F8367e1Bb143E90bb3F0512",
  "abi": [
    {
      "inputs": [
        {
          "internalType": "uint256",
          "name": "_minApplicationPeriod",
          "type": "uint256"
        }
      ],
      "stateMutability": "nonpayable",
      "type": "constructor"
    },
    {
      "inputs": [],
      "name": "AlreadyRegistered",
      "type": "error"
    },
    {
      "inputs": [
        {
          "internalType": "address",
          "name": "spender",
          "type": "address"
        },
        {
          "internalType": "uint256",
          "name": "allowance",
          "type": "uint256"
        },
        {
          "internalType": "uint256",
          "name": "needed",
          "type": "uint256"
        }
      ],
      "name": "ERC20InsufficientAllowance",
      "type": "error"
    },
    {
      "inputs": [
        {
          "internalType": "address",
          "name": "sender",
          "type": "address"
        },
        {
          "internalType": "uint256",
          "name": "balance",
          "type": "uint256"
        },
        {
          "internalType": "uint256",
          "name": "needed",
          "type": "uint256"
        }
      ],
      "name": "ERC20InsufficientBalance",
      "type": "error"
    },
    {
      "inputs": [],
      "name": "FeeTooLow",
      "type": "error"
    },
    {
      "inputs": [],
      "name": "NotMinter",
      "type": "error"
    },
    {
      "inputs": [],
      "name": "PeriodTooShort",
      "type": "error"
    },
    {
      "inputs": [],
      "name": "TooLate",
      "type": "error"
    },
    {
      "anonymous": false,
      "inputs": [
        {
          "indexed": true,
          "internalType": "address",
          "name": "owner",
          "type": "address"
        },
        {
          "indexed": true,
          "internalType": "address",
          "name": "spender",
          "type": "address"
        },
        {
          "indexed": false,
          "internalType": "uint256",
          "name": "value",
          "type": "uint256"
        }
      ],
      "name": "Approval",
      "type": "event"
    },
    {
      "anonymous": false,
      "inputs": [
        {
          "indexed": true,
          "internalType": "address",
          "name": "reportingMinter",
          "type": "address"
        },
        {
          "indexed": false,
          "internalType": "uint256",
          "name": "amount",
          "type": "uint256"
        }
      ],
      "name": "Loss",
      "type": "event"
    },
    {
      "anonymous": false,
      "inputs": [
        {
          "indexed": true,
          "internalType": "address",
          "name": "minter",
          "type": "address"
        },
        {
          "indexed": false,
          "internalType": "uint256",
          "name": "applicationPeriod",
          "type": "uint256"
        },
        {
          "indexed": false,
          "internalType": "uint256",
          "name": "applicationFee",
          "type": "uint256"
        },
        {
          "indexed": false,
          "internalType": "string",
          "name": "message",
          "type": "string"
        }
      ],
      "name": "MinterApplied",
      "type": "event"
    },
    {
      "anonymous": false,
      "inputs": [
        {
          "indexed": true,
          "internalType": "address",
          "name": "minter",
          "type": "address"
        },
        {
          "indexed": false,
          "internalType": "string",
          "name": "message",
          "type": "string"
        }
      ],
      "name": "MinterDenied",
      "type": "event"
    },
    {
      "anonymous": false,
      "inputs": [
        {
          "indexed": true,
          "internalType": "address",
          "name": "reportingMinter",
          "type": "address"
        },
        {
          "indexed": false,
          "internalType": "uint256",
          "name": "amount",
          "type": "uint256"
        }
      ],
      "name": "Profit",
      "type": "event"
    },
    {
      "anonymous": false,
      "inputs": [
        {
          "indexed": true,
          "internalType": "address",
          "name": "from",
          "type": "address"
        },
        {
          "indexed": true,
          "internalType": "address",
          "name": "to",
          "type": "address"
        },
        {
          "indexed": false,
          "internalType": "uint256",
          "name": "value",
          "type": "uint256"
        }
      ],
      "name": "Transfer",
      "type": "event"
    },
    {
      "inputs": [],
      "name": "DOMAIN_SEPARATOR",
      "outputs": [
        {
          "internalType": "bytes32",
          "name": "",
          "type": "bytes32"
        }
      ],
      "stateMutability": "view",
      "type": "function"
    },
    {
      "inputs": [],
      "name": "MIN_APPLICATION_PERIOD",
      "outputs": [
        {
          "internalType": "uint256",
          "name": "",
          "type": "uint256"
        }
      ],
      "stateMutability": "view",
      "type": "function"
    },
    {
      "inputs": [],
      "name": "MIN_FEE",
      "outputs": [
        {
          "internalType": "uint256",
          "name": "",
          "type": "uint256"
        }
      ],
      "stateMutability": "view",
      "type": "function"
    },
    {
      "inputs": [
        {
          "internalType": "address",
          "name": "owner",
          "type": "address"
        },
        {
          "internalType": "address",
          "name": "spender",
          "type": "address"
        }
      ],
      "name": "allowance",
      "outputs": [
        {
          "internalType": "uint256",
          "name": "",
          "type": "uint256"
        }
      ],
      "stateMutability": "view",
      "type": "function"
    },
    {
      "inputs": [
        {
          "internalType": "address",
          "name": "spender",
          "type": "address"
        },
        {
          "internalType": "uint256",
          "name": "value",
          "type": "uint256"
        }
      ],
      "name": "approve",
      "outputs": [
        {
          "internalType": "bool",
          "name": "",
          "type": "bool"
        }
      ],
      "stateMutability": "nonpayable",
      "type": "function"
    },
    {
      "inputs": [
        {
          "internalType": "address",
          "name": "account",
          "type": "address"
        }
      ],
      "name": "balanceOf",
      "outputs": [
        {
          "internalType": "uint256",
          "name": "",
          "type": "uint256"
        }
      ],
      "stateMutability": "view",
      "type": "function"
    },
    {
      "inputs": [
        {
          "internalType": "uint256",
          "name": "_amount",
          "type": "uint256"
        }
      ],
      "name": "burn",
      "outputs": [],
      "stateMutability": "nonpayable",
      "type": "function"
    },
    {
      "inputs": [
        {
          "internalType": "address",
          "name": "_owner",
          "type": "address"
        },
        {
          "internalType": "uint256",
          "name": "_amount",
          "type": "uint256"
        }
      ],
      "name": "burnFrom",
      "outputs": [],
      "stateMutability": "nonpayable",
      "type": "function"
    },
    {
      "inputs": [
        {
          "internalType": "address",
          "name": "payer",
          "type": "address"
        },
        {
          "internalType": "uint256",
          "name": "targetTotalBurnAmount",
          "type": "uint256"
        },
        {
          "internalType": "uint32",
          "name": "reservePPM",
          "type": "uint32"
        }
      ],
      "name": "burnFromWithReserve",
      "outputs": [
        {
          "internalType": "uint256",
          "name": "",
          "type": "uint256"
        }
      ],
      "stateMutability": "nonpayable",
      "type": "function"
    },
    {
      "inputs": [
        {
          "internalType": "uint256",
          "name": "_amountExcludingReserve",
          "type": "uint256"
        },
        {
          "internalType": "uint32",
          "name": "_reservePPM",
          "type": "uint32"
        }
      ],
      "name": "burnWithReserve",
      "outputs": [
        {
          "internalType": "uint256",
          "name": "",
          "type": "uint256"
        }
      ],
      "stateMutability": "nonpayable",
      "type": "function"
    },
    {
      "inputs": [
        {
          "internalType": "uint256",
          "name": "amount",
          "type": "uint256"
        },
        {
          "internalType": "uint32",
          "name": "reservePPM",
          "type": "uint32"
        }
      ],
      "name": "burnWithoutReserve",
      "outputs": [],
      "stateMutability": "nonpayable",
      "type": "function"
    },
    {
      "inputs": [
        {
          "internalType": "uint256",
          "name": "mintedAmount",
          "type": "uint256"
        },
        {
          "internalType": "uint32",
          "name": "_reservePPM",
          "type": "uint32"
        }
      ],
      "name": "calculateAssignedReserve",
      "outputs": [
        {
          "internalType": "uint256",
          "name": "",
          "type": "uint256"
        }
      ],
      "stateMutability": "view",
      "type": "function"
    },
    {
      "inputs": [
        {
          "internalType": "uint256",
          "name": "amountExcludingReserve",
          "type": "uint256"
        },
        {
          "internalType": "uint32",
          "name": "reservePPM",
          "type": "uint32"
        }
      ],
      "name": "calculateFreedAmount",
      "outputs": [
        {
          "internalType": "uint256",
          "name": "",
          "type": "uint256"
        }
      ],
      "stateMutability": "view",
      "type": "function"
    },
    {
      "inputs": [
        {
          "internalType": "address",
          "name": "source",
          "type": "address"
        },
        {
          "internalType": "uint256",
          "name": "_amount",
          "type": "uint256"
        }
      ],
      "name": "collectProfits",
      "outputs": [],
      "stateMutability": "nonpayable",
      "type": "function"
    },
    {
      "inputs": [
        {
          "internalType": "address",
          "name": "source",
          "type": "address"
        },
        {
          "internalType": "uint256",
          "name": "_amount",
          "type": "uint256"
        }
      ],
      "name": "coverLoss",
      "outputs": [],
      "stateMutability": "nonpayable",
      "type": "function"
    },
    {
      "inputs": [],
      "name": "decimals",
      "outputs": [
        {
          "internalType": "uint8",
          "name": "",
          "type": "uint8"
        }
      ],
      "stateMutability": "view",
      "type": "function"
    },
    {
      "inputs": [
        {
          "internalType": "address",
          "name": "_minter",
          "type": "address"
        },
        {
          "internalType": "address[]",
          "name": "_helpers",
          "type": "address[]"
        },
        {
          "internalType": "string",
          "name": "_message",
          "type": "string"
        }
      ],
      "name": "denyMinter",
      "outputs": [],
      "stateMutability": "nonpayable",
      "type": "function"
    },
    {
      "inputs": [],
      "name": "equity",
      "outputs": [
        {
          "internalType": "uint256",
          "name": "",
          "type": "uint256"
        }
      ],
      "stateMutability": "view",
      "type": "function"
    },
    {
      "inputs": [
        {
          "internalType": "address",
          "name": "_position",
          "type": "address"
        }
      ],
      "name": "getPositionParent",
      "outputs": [
        {
          "internalType": "address",
          "name": "",
          "type": "address"
        }
      ],
      "stateMutability": "view",
      "type": "function"
    },
    {
      "inputs": [
        {
          "internalType": "address",
          "name": "_minter",
          "type": "address"
        },
        {
          "internalType": "string",
          "name": "_message",
          "type": "string"
        }
      ],
      "name": "initialize",
      "outputs": [],
      "stateMutability": "nonpayable",
      "type": "function"
    },
    {
      "inputs": [
        {
          "internalType": "address",
          "name": "_minter",
          "type": "address"
        }
      ],
      "name": "isMinter",
      "outputs": [
        {
          "internalType": "bool",
          "name": "",
          "type": "bool"
        }
      ],
      "stateMutability": "view",
      "type": "function"
    },
    {
      "inputs": [
        {
          "internalType": "address",
          "name": "_target",
          "type": "address"
        },
        {
          "internalType": "uint256",
          "name": "_amount",
          "type": "uint256"
        }
      ],
      "name": "mint",
      "outputs": [],
      "stateMutability": "nonpayable",
      "type": "function"
    },
    {
      "inputs": [
        {
          "internalType": "address",
          "name": "_target",
          "type": "address"
        },
        {
          "internalType": "uint256",
          "name": "_amount",
          "type": "uint256"
        },
        {
          "internalType": "uint32",
          "name": "_reservePPM",
          "type": "uint32"
        },
        {
          "internalType": "uint32",
          "name": "_feesPPM",
          "type": "uint32"
        }
      ],
      "name": "mintWithReserve",
      "outputs": [],
      "stateMutability": "nonpayable",
      "type": "function"
    },
    {
      "inputs": [],
      "name": "minterReserve",
      "outputs": [
        {
          "internalType": "uint256",
          "name": "",
          "type": "uint256"
        }
      ],
      "stateMutability": "view",
      "type": "function"
    },
    {
      "inputs": [
        {
          "internalType": "address",
          "name": "minter",
          "type": "address"
        }
      ],
      "name": "minters",
      "outputs": [
        {
          "internalType": "uint256",
          "name": "validityStart",
          "type": "uint256"
        }
      ],
      "stateMutability": "view",
      "type": "function"
    },
    {
      "inputs": [],
      "name": "name",
      "outputs": [
        {
          "internalType": "string",
          "name": "",
          "type": "string"
        }
      ],
      "stateMutability": "pure",
      "type": "function"
    },
    {
      "inputs": [
        {
          "internalType": "address",
          "name": "account",
          "type": "address"
        }
      ],
      "name": "nonces",
      "outputs": [
        {
          "internalType": "uint256",
          "name": "nonce",
          "type": "uint256"
        }
      ],
      "stateMutability": "view",
      "type": "function"
    },
    {
      "inputs": [
        {
          "internalType": "address",
          "name": "owner",
          "type": "address"
        },
        {
          "internalType": "address",
          "name": "spender",
          "type": "address"
        },
        {
          "internalType": "uint256",
          "name": "value",
          "type": "uint256"
        },
        {
          "internalType": "uint256",
          "name": "deadline",
          "type": "uint256"
        },
        {
          "internalType": "uint8",
          "name": "v",
          "type": "uint8"
        },
        {
          "internalType": "bytes32",
          "name": "r",
          "type": "bytes32"
        },
        {
          "internalType": "bytes32",
          "name": "s",
          "type": "bytes32"
        }
      ],
      "name": "permit",
      "outputs": [],
      "stateMutability": "nonpayable",
      "type": "function"
    },
    {
      "inputs": [
        {
          "internalType": "address",
          "name": "position",
          "type": "address"
        }
      ],
      "name": "positions",
      "outputs": [
        {
          "internalType": "address",
          "name": "registeringMinter",
          "type": "address"
        }
      ],
      "stateMutability": "view",
      "type": "function"
    },
    {
      "inputs": [
        {
          "internalType": "address",
          "name": "_position",
          "type": "address"
        }
      ],
      "name": "registerPosition",
      "outputs": [],
      "stateMutability": "nonpayable",
      "type": "function"
    },
    {
      "inputs": [],
      "name": "reserve",
      "outputs": [
        {
          "internalType": "contract IReserve",
          "name": "",
          "type": "address"
        }
      ],
      "stateMutability": "view",
      "type": "function"
    },
    {
      "inputs": [
        {
          "internalType": "address",
          "name": "_minter",
          "type": "address"
        },
        {
          "internalType": "uint256",
          "name": "_applicationPeriod",
          "type": "uint256"
        },
        {
          "internalType": "uint256",
          "name": "_applicationFee",
          "type": "uint256"
        },
        {
          "internalType": "string",
          "name": "_message",
          "type": "string"
        }
      ],
      "name": "suggestMinter",
      "outputs": [],
      "stateMutability": "nonpayable",
      "type": "function"
    },
    {
      "inputs": [],
      "name": "symbol",
      "outputs": [
        {
          "internalType": "string",
          "name": "",
          "type": "string"
        }
      ],
      "stateMutability": "pure",
      "type": "function"
    },
    {
      "inputs": [],
      "name": "totalSupply",
      "outputs": [
        {
          "internalType": "uint256",
          "name": "",
          "type": "uint256"
        }
      ],
      "stateMutability": "view",
      "type": "function"
    },
    {
      "inputs": [
        {
          "internalType": "address",
          "name": "recipient",
          "type": "address"
        },
        {
          "internalType": "uint256",
          "name": "amount",
          "type": "uint256"
        }
      ],
      "name": "transfer",
      "outputs": [
        {
          "internalType": "bool",
          "name": "",
          "type": "bool"
        }
      ],
      "stateMutability": "nonpayable",
      "type": "function"
    },
    {
      "inputs": [
        {
          "internalType": "address",
          "name": "sender",
          "type": "address"
        },
        {
          "internalType": "address",
          "name": "recipient",
          "type": "address"
        },
        {
          "internalType": "uint256",
          "name": "amount",
          "type": "uint256"
        }
      ],
      "name": "transferFrom",
      "outputs": [
        {
          "internalType": "bool",
          "name": "",
          "type": "bool"
        }
      ],
      "stateMutability": "nonpayable",
      "type": "function"
    }
  ],
  "transactionHash": "0x8476bed343ff6951f3c714b16caab4163a97468e4acf175816642611a27951d9",
  "args": [
    900
  ],
  "numDeployments": 1,
  "solcInputHash": "35f18c257ae2a3c41ab1d35a6f17a573",
  "bytecode": "0x60e06040523480156200001157600080fd5b50604051620041a8380380620041a883398101604081905262000034916200009d565b601260805260a081905260405130906200004e906200008f565b6001600160a01b039091168152602001604051809103906000f0801580156200007b573d6000803e3d6000fd5b506001600160a01b031660c05250620000b7565b6122918062001f1783390190565b600060208284031215620000b057600080fd5b5051919050565b60805160a05160c051611dce62000149600039600081816104fe015281816105fb015281816106ff0152818161097901528181610a1f01528181610acb01528181610c1001528181610f5801528181610f9b01528181610fcb0152818161125d01528181611305015281816116ea01526117a80152600081816102b00152610dfb015260006102ea0152611dce6000f3fe608060405234801561001057600080fd5b506004361061021c5760003560e01c806391a0ac6a11610125578063cd3293de116100ad578063d505accf1161007c578063d505accf1461054e578063dd62ed3e14610561578063e093c8a414610574578063f399e22e14610587578063f46eccc41461059a57600080fd5b8063cd3293de146104f9578063d1a15ff114610520578063d1fa5e9814610533578063d38bb0091461054657600080fd5b8063a9059cbb116100f4578063a9059cbb14610481578063aa271e1a14610494578063aa5dd7f1146104a7578063b52c696d146104d3578063c7641866146104e657600080fd5b806391a0ac6a1461043457806395d89b411461043c5780639b404da61461045b578063a47d75ad1461046e57600080fd5b806340c10f19116101a857806370a082311161017757806370a08231146103b557806376c7a3c7146103de57806379cc6790146103ee5780637ecebe00146104015780638112eb2b1461042157600080fd5b806340c10f191461033957806342966c681461034e57806355f57510146103615780636ebdb8ee146103a257600080fd5b80631a46c7e9116101ef5780631a46c7e9146102ab57806323b872dd146102d2578063313ce567146102e5578063315f3e721461031e5780633644e5151461033157600080fd5b806306fdde0314610221578063095ea7b31461025f57806316e0e5381461028257806318160ddd146102a3575b600080fd5b60408051808201909152601081526f27b930b1b632a33932b2a237b63630b960811b60208201525b60405161025691906117ff565b60405180910390f35b61027261026d366004611869565b6105ba565b6040519015158152602001610256565b6102956102903660046118a7565b6105d1565b604051908152602001610256565b600254610295565b6102957f000000000000000000000000000000000000000000000000000000000000000081565b6102726102e03660046118d3565b610675565b61030c7f000000000000000000000000000000000000000000000000000000000000000081565b60405160ff9091168152602001610256565b61029561032c36600461190f565b610697565b61029561075e565b61034c610347366004611869565b6107b7565b005b61034c61035c36600461194b565b610818565b61038a61036f366004611964565b6006602052600090815260409020546001600160a01b031681565b6040516001600160a01b039091168152602001610256565b61034c6103b0366004611869565b610825565b6102956103c3366004611964565b6001600160a01b031660009081526020819052604090205490565b610295683635c9adc5dea0000081565b61034c6103fc366004611869565b610883565b61029561040f366004611964565b60036020526000908152604090205481565b61034c61042f36600461197f565b6108e0565b610295610a15565b60408051808201909152600381526213d19160ea1b6020820152610249565b61034c610469366004611a15565b610a7b565b61029561047c3660046118a7565b610b81565b61027261048f366004611869565b610c50565b6102726104a2366004611964565b610c5d565b61038a6104b5366004611964565b6001600160a01b039081166000908152600660205260409020541690565b61034c6104e1366004611964565b610c9e565b61034c6104f43660046118a7565b610ced565b61038a7f000000000000000000000000000000000000000000000000000000000000000081565b61034c61052e366004611ac7565b610df9565b61034c610541366004611869565b610f03565b61029561103a565b61034c61055c366004611b1e565b611052565b61029561056f366004611b91565b611247565b6102956105823660046118a7565b611253565b61034c610595366004611bbb565b6112f8565b6102956105a8366004611964565b60056020526000908152604090205481565b60006105c73384846113de565b5060015b92915050565b600080620f42406105e88563ffffffff8616611c24565b6105f29190611c3b565b905060006106357f00000000000000000000000000000000000000000000000000000000000000006001600160a01b031660009081526020819052604090205490565b9050600061064161103a565b90508082101561066a57806106568385611c24565b6106609190611c3b565b93505050506105cb565b8293505050506105cb565b6000610682848484611440565b61068d843384611557565b5060019392505050565b60006106a233610c5d565b1580156106ce5750336000908152600660205260409020546106cc906001600160a01b0316610c5d565b155b156106ec57604051633e34a41b60e21b815260040160405180910390fd5b60006106f884846105d1565b90506107257f00000000000000000000000000000000000000000000000000000000000000008683611440565b61072f85856115c5565b61073f63ffffffff841685611c24565b600460008282546107509190611c5d565b909155509095945050505050565b604080517f47e79534a245952e8b16893a336b85a3d9ea9fa8c573f3d803afb92a794692186020820152469181019190915230606082015260009060800160405160208183030381529060405280519060200120905090565b6107c033610c5d565b1580156107ec5750336000908152600660205260409020546107ea906001600160a01b0316610c5d565b155b1561080a57604051633e34a41b60e21b815260040160405180910390fd5b610814828261164f565b5050565b61082233826115c5565b50565b61082e33610c5d565b15801561085a575033600090815260066020526040902054610858906001600160a01b0316610c5d565b155b1561087857604051633e34a41b60e21b815260040160405180910390fd5b6108143383836116e4565b61088c33610c5d565b1580156108b85750336000908152600660205260409020546108b6906001600160a01b0316610c5d565b155b156108d657604051633e34a41b60e21b815260040160405180910390fd5b61081482826115c5565b6108e933610c5d565b158015610915575033600090815260066020526040902054610913906001600160a01b0316610c5d565b155b1561093357604051633e34a41b60e21b815260040160405180910390fd5b6000620f4240836109448483611c70565b61094e9190611c70565b61095e9063ffffffff1686611c24565b6109689190611c3b565b9050610974858261164f565b6109a77f00000000000000000000000000000000000000000000000000000000000000006109a28387611c5d565b61164f565b6109b763ffffffff841685611c24565b600460008282546109c89190611c8d565b90915550339050600080516020611d79833981519152620f42406109f28763ffffffff8716611c24565b6109fc9190611c3b565b6040519081526020015b60405180910390a25050505050565b6001600160a01b037f0000000000000000000000000000000000000000000000000000000000000000166000908152602081905260408120546000610a5861103a565b9050808211610a6a5760009250505090565b610a748183611c5d565b9250505090565b6001600160a01b038516600090815260056020526040902054421115610ab45760405163ecdd1c2960e01b815260040160405180910390fd5b60405163352e3a8360e01b81526001600160a01b037f0000000000000000000000000000000000000000000000000000000000000000169063352e3a8390610b0490339088908890600401611ca0565b60006040518083038186803b158015610b1c57600080fd5b505afa158015610b30573d6000803e3d6000fd5b505050506001600160a01b03851660008181526005602052604080822091909155517fd60c86e83346fdbe3124cb7d1cba32973a9f62d05c4ec801bfe6c09d1038038190610a069085908590611d23565b6000610b8c33610c5d565b158015610bb8575033600090815260066020526040902054610bb6906001600160a01b0316610c5d565b155b15610bd657604051633e34a41b60e21b815260040160405180910390fd5b6000610be28484611253565b9050610bf463ffffffff841682611c24565b60046000828254610c059190611c5d565b90915550610c3f90507f000000000000000000000000000000000000000000000000000000000000000033610c3a8785611c5d565b611440565b610c4933826115c5565b9392505050565b60006105c7338484611440565b6001600160a01b038116600090815260056020526040812054158015906105cb5750506001600160a01b031660009081526005602052604090205442101590565b610ca733610c5d565b610cc457604051633e34a41b60e21b815260040160405180910390fd5b6001600160a01b0316600090815260066020526040902080546001600160a01b03191633179055565b610cf633610c5d565b158015610d22575033600090815260066020526040902054610d20906001600160a01b0316610c5d565b155b15610d4057604051633e34a41b60e21b815260040160405180910390fd5b610d4a33836115c5565b6000610d5c63ffffffff831684611c24565b9050600454811115610dad57336001600160a01b0316600080516020611d79833981519152620f4240600454610d929190611c3b565b60405190815260200160405180910390a26000600455505050565b8060046000828254610dbf9190611c5d565b90915550339050600080516020611d79833981519152610de2620f424084611c3b565b6040519081526020015b60405180910390a2505050565b7f0000000000000000000000000000000000000000000000000000000000000000841015610e3a57604051631260d0af60e31b815260040160405180910390fd5b683635c9adc5dea00000831015610e645760405163732f941360e01b815260040160405180910390fd5b6001600160a01b03851660009081526005602052604090205415610e9b57604051630ea075bf60e21b815260040160405180910390fd5b610ea63033856116e4565b610eb08442611c8d565b6001600160a01b038616600081815260056020526040908190209290925590517f97326258efdae63280617ca33884e507791c2abeed7b82acd77f1853394ef94b90610a06908790879087908790611d3f565b610f0c33610c5d565b158015610f38575033600090815260066020526040902054610f36906001600160a01b0316610c5d565b155b15610f5657604051633e34a41b60e21b815260040160405180910390fd5b7f00000000000000000000000000000000000000000000000000000000000000006001600160a01b0316600090815260208190526040902054818110610fc657610fc17f00000000000000000000000000000000000000000000000000000000000000008484611440565b610fff565b610ff17f00000000000000000000000000000000000000000000000000000000000000008483611440565b610fff836109a28385611c5d565b826001600160a01b03167f72fba0ba07d937c660a3130fca36005c0e476cb97b6f00de413976e37eba950183604051610dec91815260200190565b6000620f424060045461104d9190611c3b565b905090565b428410156110a75760405162461bcd60e51b815260206004820152601760248201527f5045524d49545f444541444c494e455f4558504952454400000000000000000060448201526064015b60405180910390fd5b600060016110b361075e565b6001600160a01b038a811660008181526003602090815260409182902080546001810190915582517f6e71edae12b1b97f4d1f60370fef10105fa2faae0126114a169c64845d6126c98184015280840194909452938d166060840152608083018c905260a083019390935260c08083018b90528151808403909101815260e08301909152805192019190912061190160f01b6101008301526101028201929092526101228101919091526101420160408051601f198184030181528282528051602091820120600084529083018083525260ff871690820152606081018590526080810184905260a0016020604051602081039080840390855afa1580156111bf573d6000803e3d6000fd5b5050604051601f1901519150506001600160a01b038116158015906111f55750876001600160a01b0316816001600160a01b0316145b6112325760405162461bcd60e51b815260206004820152600e60248201526d24a72b20a624a22fa9a4a3a722a960911b604482015260640161109e565b61123d8188886113de565b5050505050505050565b6000610c498383611738565b6001600160a01b037f000000000000000000000000000000000000000000000000000000000000000016600090815260208190526040812054600061129661103a565b905060008183106112ad578463ffffffff166112c8565b816112be8463ffffffff8816611c24565b6112c89190611c3b565b90506112d781620f4240611c5d565b6112e487620f4240611c24565b6112ee9190611c3b565b9695505050505050565b60025415801561138757507f00000000000000000000000000000000000000000000000000000000000000006001600160a01b03166318160ddd6040518163ffffffff1660e01b8152600401602060405180830381865afa158015611361573d6000803e3d6000fd5b505050506040513d601f19601f820116820180604052508101906113859190611d5f565b155b61139057600080fd5b6001600160a01b038316600081815260056020526040808220429055517f97326258efdae63280617ca33884e507791c2abeed7b82acd77f1853394ef94b91610dec91819087908790611d3f565b6001600160a01b0383811660008181526001602090815260408083209487168084529482529182902085905590518481527f8c5be1e5ebec7d5bd14f71427d1e84f3dd0314c0f7b2291e5b200ac8c7c3b92591015b60405180910390a3505050565b6001600160a01b03821661145357600080fd5b6001600160a01b0383166000908152602081905260409020548111156114b6576001600160a01b0383166000818152602081905260409081902054905163391434e360e21b8152600481019290925260248201526044810182905260640161109e565b6001600160a01b038316600090815260208190526040812080548392906114de908490611c5d565b90915550506001600160a01b0382166000908152602081905260408120805483929061150b908490611c8d565b92505081905550816001600160a01b0316836001600160a01b03167fddf252ad1be2c89b69c2b068fc378daa952ba7f163c4a11628f55a4df523b3ef8360405161143391815260200190565b60006115638484611738565b9050600160ff1b8110156115bf57818110156115ab57604051637dc7a0d960e11b81526001600160a01b0385166004820152602481018290526044810183905260640161109e565b6115bf84846115ba8585611c5d565b6113de565b50505050565b80600260008282546115d79190611c5d565b90915550506001600160a01b03821660009081526020819052604081208054839290611604908490611c5d565b90915550506040518181526000906001600160a01b038416907fddf252ad1be2c89b69c2b068fc378daa952ba7f163c4a11628f55a4df523b3ef906020015b60405180910390a35050565b6001600160a01b03821661166257600080fd5b80600260008282546116749190611c8d565b90915550506001600160a01b038216600090815260208190526040812080548392906116a1908490611c8d565b90915550506040518181526001600160a01b038316906000907fddf252ad1be2c89b69c2b068fc378daa952ba7f163c4a11628f55a4df523b3ef90602001611643565b61170f827f000000000000000000000000000000000000000000000000000000000000000083611440565b826001600160a01b0316600080516020611d7983398151915282604051610dec91815260200190565b6001600160a01b038083166000908152600160209081526040808320938516835292905290812054801561176d5790506105cb565b61177683610c5d565b806117a057506001600160a01b038084166000908152600660205260409020546117a09116610c5d565b806117dc57507f00000000000000000000000000000000000000000000000000000000000000006001600160a01b0316836001600160a01b0316145b156117ee57600160ff1b9150506105cb565b60009150506105cb565b5092915050565b600060208083528351808285015260005b8181101561182c57858101830151858201604001528201611810565b506000604082860101526040601f19601f8301168501019250505092915050565b80356001600160a01b038116811461186457600080fd5b919050565b6000806040838503121561187c57600080fd5b6118858361184d565b946020939093013593505050565b803563ffffffff8116811461186457600080fd5b600080604083850312156118ba57600080fd5b823591506118ca60208401611893565b90509250929050565b6000806000606084860312156118e857600080fd5b6118f18461184d565b92506118ff6020850161184d565b9150604084013590509250925092565b60008060006060848603121561192457600080fd5b61192d8461184d565b92506020840135915061194260408501611893565b90509250925092565b60006020828403121561195d57600080fd5b5035919050565b60006020828403121561197657600080fd5b610c498261184d565b6000806000806080858703121561199557600080fd5b61199e8561184d565b9350602085013592506119b360408601611893565b91506119c160608601611893565b905092959194509250565b60008083601f8401126119de57600080fd5b50813567ffffffffffffffff8111156119f657600080fd5b602083019150836020828501011115611a0e57600080fd5b9250929050565b600080600080600060608688031215611a2d57600080fd5b611a368661184d565b9450602086013567ffffffffffffffff80821115611a5357600080fd5b818801915088601f830112611a6757600080fd5b813581811115611a7657600080fd5b8960208260051b8501011115611a8b57600080fd5b602083019650809550506040880135915080821115611aa957600080fd5b50611ab6888289016119cc565b969995985093965092949392505050565b600080600080600060808688031215611adf57600080fd5b611ae88661184d565b94506020860135935060408601359250606086013567ffffffffffffffff811115611b1257600080fd5b611ab6888289016119cc565b600080600080600080600060e0888a031215611b3957600080fd5b611b428861184d565b9650611b506020890161184d565b95506040880135945060608801359350608088013560ff81168114611b7457600080fd5b9699959850939692959460a0840135945060c09093013592915050565b60008060408385031215611ba457600080fd5b611bad8361184d565b91506118ca6020840161184d565b600080600060408486031215611bd057600080fd5b611bd98461184d565b9250602084013567ffffffffffffffff811115611bf557600080fd5b611c01868287016119cc565b9497909650939450505050565b634e487b7160e01b600052601160045260246000fd5b80820281158282048414176105cb576105cb611c0e565b600082611c5857634e487b7160e01b600052601260045260246000fd5b500490565b818103818111156105cb576105cb611c0e565b63ffffffff8281168282160390808211156117f8576117f8611c0e565b808201808211156105cb576105cb611c0e565b6001600160a01b03848116825260406020808401829052908301849052600091859160608501845b87811015611ced5783611cda8661184d565b1682529382019390820190600101611cc8565b5098975050505050505050565b81835281816020850137506000828201602090810191909152601f909101601f19169091010190565b602081526000611d37602083018486611cfa565b949350505050565b8481528360208201526060604082015260006112ee606083018486611cfa565b600060208284031215611d7157600080fd5b505191905056fe5314098314219d6e1ce8e41fc5e6ec1ce2f06a9d583079fb6619af9bf6efdf41a26469706673582212205ff7f9bd885b2e5e485ad41bdf269c7ae2493be045c7c9ab48494ebb76918e7664736f6c6343000814003360c060405234801561001057600080fd5b50604051620022913803806200229183398101604081905261003191610047565b60126080526001600160a01b031660a052610077565b60006020828403121561005957600080fd5b81516001600160a01b038116811461007057600080fd5b9392505050565b60805160a0516121bc620000d56000396000818161051a015281816107d30152818161092901528181610af301528181610ba401528181610cbf01528181610ffb01528181611075015261137d0152600061030f01526121bc6000f3fe608060405234801561001057600080fd5b50600436106101fb5760003560e01c806370a082311161011a578063a9059cbb116100ad578063d505accf1161007c578063d505accf146104c9578063d87aa643146104dc578063d8bff5a5146104ef578063dd62ed3e14610502578063f61d52e61461051557600080fd5b8063a9059cbb14610483578063ad08ce5b14610496578063b0c2bf06146104a9578063c9f72b67146104b657600080fd5b806391ac6f99116100e957806391ac6f991461043457806395d89b41146104475780639823004f14610468578063a035b1fe1461047b57600080fd5b806370a08231146103c55780637ecebe00146103ee578063820710af1461040e57806384a7aa0c1461042157600080fd5b806323b872dd116101925780633644e515116101615780633644e515146103565780633ec161941461035e578063587cde1e146103715780635895b773146103b257600080fd5b806323b872dd146102da578063250f25f4146102ed578063313ce5671461030a578063352e3a831461034357600080fd5b8063151535b9116101ce578063151535b91461029757806318160ddd146102aa5780631e9a6950146102b25780632295abea146102c557600080fd5b806306fdde0314610200578063095ea7b31461024b5780630d15fd771461026e5780630e89c37014610284575b600080fd5b60408051808201909152601b81527f4f7261636c6546726565446f6c6c617220506f6f6c205368617265000000000060208201525b6040516102429190611cbb565b60405180910390f35b61025e610259366004611d25565b61053c565b6040519015158152602001610242565b610276610553565b604051908152602001610242565b610276610292366004611d4f565b6105ae565b61025e6102a5366004611d82565b6105d3565b600254610276565b6102766102c0366004611d25565b61061b565b6102d86102d3366004611de8565b61062f565b005b61025e6102e8366004611e33565b6106fe565b6102f5600381565b60405163ffffffff9091168152602001610242565b6103317f000000000000000000000000000000000000000000000000000000000000000081565b60405160ff9091168152602001610242565b6102d8610351366004611e6f565b610720565b610276610773565b61027661036c366004611ec1565b6107cc565b61039a61037f366004611d82565b6005602052600090815260409020546001600160a01b031681565b6040516001600160a01b039091168152602001610242565b6102766103c0366004611e6f565b610859565b6102766103d3366004611d82565b6001600160a01b031660009081526020819052604090205490565b6102766103fc366004611d82565b60036020526000908152604090205481565b6102d861041c366004611eda565b610913565b61027661042f366004611d82565b610a36565b610276610442366004611f45565b610a65565b6040805180820190915260058152644f4644505360d81b6020820152610235565b6102d8610476366004611d82565b610a97565b610276610aee565b61025e610491366004611d25565b610c49565b6102766104a4366004611ec1565b610c56565b61027665076a7000000081565b6102766104c4366004611d82565b610d9a565b6102d86104d7366004611f87565b610de6565b6102766104ea366004611ffa565b610fd6565b6102766104fd366004611d82565b61123c565b61027661051036600461201c565b61129d565b61039a7f000000000000000000000000000000000000000000000000000000000000000081565b60006105493384846112ca565b5060015b92915050565b600454600090600160c01b90046001600160401b03164260141b6105779190612065565b6001600160401b031661058960025490565b6105939190612085565b6004546105a991906001600160c01b031661209c565b905090565b6000806105bc33868661132c565b9050828110156105cb57600080fd5b949350505050565b6001600160a01b03811660009081526006602052604081205465076a700000009061060a906001600160401b03164260141b612065565b6001600160401b0316101592915050565b600061062833848461132c565b9392505050565b600061063b3383611454565b90506000805b848110801561064f57508282105b156106ab5761068d868683818110610669576106696120af565b905060200201602081019061067e9190611d82565b61068884866120c5565b611454565b610697908361209c565b9150806106a3816120d8565b915050610641565b50600081116106b957600080fd5b81816106c3610553565b6106cd91906120c5565b6106d791906120c5565b6001600160c01b0316600160c01b4260141b6001600160401b031602176004555050505050565b600061070b848484611544565b610716843384611666565b5060019392505050565b600061072d848484610859565b9050610737610553565b6107429060c8612085565b61074e82612710612085565b101561076d5760405163bcfcdc1160e01b815260040160405180910390fd5b50505050565b604080517f47e79534a245952e8b16893a336b85a3d9ea9fa8c573f3d803afb92a794692186020820152469181019190915230606082015260009060800160405160208183030381529060405280519060200120905090565b600061054d7f00000000000000000000000000000000000000000000000000000000000000006001600160a01b03166391a0ac6a6040518163ffffffff1660e01b8152600401602060405180830381865afa15801561082f573d6000803e3d6000fd5b505050506040513d601f19601f8201168201806040525081019061085391906120f1565b836116e6565b6000806108658561123c565b90506108718484611784565b61087a57600080fd5b60005b8381101561090a576000858583818110610899576108996120af565b90506020020160208101906108ae9190611d82565b9050866001600160a01b0316816001600160a01b0316036108ce57600080fd5b6108d8878261185d565b6108e157600080fd5b6108ea8161123c565b6108f4908461209c565b9250508080610902906120d8565b91505061087d565b50949350505050565b610927670de0b6b3a76400006103e8612085565b7f00000000000000000000000000000000000000000000000000000000000000006001600160a01b03166391a0ac6a6040518163ffffffff1660e01b8152600401602060405180830381865afa158015610985573d6000803e3d6000fd5b505050506040513d601f19601f820116820180604052508101906109a991906120f1565b106109b357600080fd5b6109be338585610720565b60005b81811015610a2f5760008383838181106109dd576109dd6120af565b90506020020160208101906109f29190611d82565b9050610a1c81610a17836001600160a01b031660009081526020819052604090205490565b6118c3565b5080610a27816120d8565b9150506109c1565b5050505050565b6000610a40610553565b610a498361123c565b610a5b90670de0b6b3a7640000612085565b61054d9190612120565b6000610a72853385611666565b6000610a7f86868661132c565b905082811015610a8e57600080fd5b95945050505050565b3360008181526005602052604080822080546001600160a01b0319166001600160a01b03861690811790915590519092917fd000f39f92c3ed77f890f16b6ced1555e0ab2cdf470522d2210de67d8c83d45b91a350565b6000807f00000000000000000000000000000000000000000000000000000000000000006001600160a01b03166391a0ac6a6040518163ffffffff1660e01b8152600401602060405180830381865afa158015610b4f573d6000803e3d6000fd5b505050506040513d601f19601f82011682018060405250810190610b7391906120f1565b9050801580610b825750600254155b15610b9657670de0b6b3a764000091505090565b600254670de0b6b3a76400007f00000000000000000000000000000000000000000000000000000000000000006001600160a01b03166391a0ac6a6040518163ffffffff1660e01b8152600401602060405180830381865afa158015610c00573d6000803e3d6000fd5b505050506040513d601f19601f82011682018060405250810190610c2491906120f1565b610c2f906003612085565b610c399190612085565b610c439190612120565b91505090565b6000610549338484611544565b600080610c6260025490565b905080610c77670de0b6b3a76400008561209c565b10610cbb5760405162461bcd60e51b815260206004820152600f60248201526e746f6f206d616e792073686172657360881b60448201526064015b60405180910390fd5b60007f00000000000000000000000000000000000000000000000000000000000000006001600160a01b03166391a0ac6a6040518163ffffffff1660e01b8152600401602060405180830381865afa158015610d1b573d6000803e3d6000fd5b505050506040513d601f19601f82011682018060405250810190610d3f91906120f1565b905060006103e8610d52866103e5612085565b610d5c9190612120565b90506000610d8483610d7f610d7a610d7486896120c5565b88611959565b611978565b611989565b9050610d9081846120c5565b9695505050505050565b6001600160a01b038116600090815260066020526040812054601490610dcb906001600160401b031642831b612065565b6001600160401b0316901c6001600160401b03169050919050565b42841015610e365760405162461bcd60e51b815260206004820152601760248201527f5045524d49545f444541444c494e455f455850495245440000000000000000006044820152606401610cb2565b60006001610e42610773565b6001600160a01b038a811660008181526003602090815260409182902080546001810190915582517f6e71edae12b1b97f4d1f60370fef10105fa2faae0126114a169c64845d6126c98184015280840194909452938d166060840152608083018c905260a083019390935260c08083018b90528151808403909101815260e08301909152805192019190912061190160f01b6101008301526101028201929092526101228101919091526101420160408051601f198184030181528282528051602091820120600084529083018083525260ff871690820152606081018590526080810184905260a0016020604051602081039080840390855afa158015610f4e573d6000803e3d6000fd5b5050604051601f1901519150506001600160a01b03811615801590610f845750876001600160a01b0316816001600160a01b0316145b610fc15760405162461bcd60e51b815260206004820152600e60248201526d24a72b20a624a22fa9a4a3a722a960911b6044820152606401610cb2565b610fcc8188886112ca565b5050505050505050565b6040516323b872dd60e01b8152336004820152306024820152604481018390526000907f00000000000000000000000000000000000000000000000000000000000000006001600160a01b0316906323b872dd906064016020604051808303816000875af115801561104c573d6000803e3d6000fd5b505050506040513d601f19601f820116820180604052508101906110709190612134565b5060007f00000000000000000000000000000000000000000000000000000000000000006001600160a01b03166391a0ac6a6040518163ffffffff1660e01b8152600401602060405180830381865afa1580156110d1573d6000803e3d6000fd5b505050506040513d601f19601f820116820180604052508101906110f591906120f1565b905061110b670de0b6b3a76400006103e8612085565b8110156111495760405162461bcd60e51b815260206004820152600c60248201526b696e7375662065717569747960a01b6044820152606401610cb2565b600061116e858311156111655761116086846120c5565b611168565b60005b866116e6565b90508381101561117d57600080fd5b611187338261199e565b7fd98fb7c2b7c7b545387da80b92c08bc5d2a4b922fb74851c3d27ee07ca897bdf3382876111b3610aee565b604080516001600160a01b039095168552602085019390935291830152606082015260800160405180910390a16bffffffffffffffffffffffff6111f660025490565b11156105cb5760405162461bcd60e51b81526020600482015260156024820152741d1bdd185b081cdd5c1c1b1e48195e18d959591959605a1b6044820152606401610cb2565b6001600160a01b03811660009081526006602052604081205461126b906001600160401b03164260141b612065565b6001600160401b0316611293836001600160a01b031660009081526020819052604090205490565b61054d9190612085565b6001600160a01b038083166000908152600160209081526040808320938516835292905290812054610628565b6001600160a01b0383811660008181526001602090815260408083209487168084529482529182902085905590518481527f8c5be1e5ebec7d5bd14f71427d1e84f3dd0314c0f7b2291e5b200ac8c7c3b92591015b60405180910390a3505050565b6000611337846105d3565b61134057600080fd5b600061134b83610c56565b905061135785846118c3565b60405163a9059cbb60e01b81526001600160a01b038581166004830152602482018390527f0000000000000000000000000000000000000000000000000000000000000000169063a9059cbb906044016020604051808303816000875af11580156113c6573d6000803e3d6000fd5b505050506040513d601f19601f820116820180604052508101906113ea9190612134565b507fd98fb7c2b7c7b545387da80b92c08bc5d2a4b922fb74851c3d27ee07ca897bdf8561141685612156565b8361141f610aee565b604080516001600160a01b039095168552602085019390935291830152606082015260800160405180910390a1949350505050565b6000806114608461123c565b90508083106114a8576001600160a01b0384166000908152600660205260409020805467ffffffffffffffff19164260141b6001600160401b0316179055915081905061054d565b6001600160a01b0384166000908152602081905260409020546114cb84836120c5565b6114d59190612120565b6114eb906001600160401b034260141b166120c5565b6001600160a01b0385166000908152600660205260409020805467ffffffffffffffff19166001600160401b039290921691909117905561152b8461123c565b61153590826120c5565b91505061054d565b5092915050565b6001600160a01b03821661155757600080fd5b611562838383611a3f565b6001600160a01b0383166000908152602081905260409020548111156115c5576001600160a01b0383166000818152602081905260409081902054905163391434e360e21b81526004810192909252602482015260448101829052606401610cb2565b6001600160a01b038316600090815260208190526040812080548392906115ed9084906120c5565b90915550506001600160a01b0382166000908152602081905260408120805483929061161a90849061209c565b92505081905550816001600160a01b0316836001600160a01b03167fddf252ad1be2c89b69c2b068fc378daa952ba7f163c4a11628f55a4df523b3ef8360405161131f91815260200190565b6001600160a01b03838116600090815260016020908152604080832093861683529290522054600160ff1b81101561076d57818110156116d257604051637dc7a0d960e11b81526001600160a01b03851660048201526024810182905260448101839052606401610cb2565b61076d84846116e185856120c5565b6112ca565b6000806116f260025490565b905060006103e8611705856103e5612085565b61170f9190612120565b90506000611727670de0b6b3a76400006103e8612085565b861080611732575082155b61175a5761175583610d7f61175061174a868b61209c565b8a611959565b611a63565b611778565b61176e670de0b6b3a76400006103e8612085565b611778908461209c565b9050610d9083826120c5565b6000600182116117965750600161054d565b6000838360008181106117ab576117ab6120af565b90506020020160208101906117c09190611d82565b905060015b8381101561185257816001600160a01b03168585838181106117e9576117e96120af565b90506020020160208101906117fe9190611d82565b6001600160a01b0316116118175760009250505061054d565b848482818110611829576118296120af565b905060200201602081019061183e9190611d82565b91508061184a816120d8565b9150506117c5565b50600191505061054d565b6000826001600160a01b0316826001600160a01b0316036118805750600161054d565b6001600160a01b0382166118965750600061054d565b6001600160a01b038083166000908152600560205260409020546118bc9185911661185d565b905061054d565b6118cf82600083611a3f565b80600260008282546118e191906120c5565b90915550506001600160a01b0382166000908152602081905260408120805483929061190e9084906120c5565b90915550506040518181526000906001600160a01b038416907fddf252ad1be2c89b69c2b068fc378daa952ba7f163c4a11628f55a4df523b3ef906020015b60405180910390a35050565b60008161196e670de0b6b3a764000085612085565b6106289190612120565b600061054d6119878384611989565b835b6000670de0b6b3a764000061196e8385612085565b6001600160a01b0382166119b157600080fd5b6119bd60008383611a3f565b80600260008282546119cf919061209c565b90915550506001600160a01b038216600090815260208190526040812080548392906119fc90849061209c565b90915550506040518181526001600160a01b038316906000907fddf252ad1be2c89b69c2b068fc378daa952ba7f163c4a11628f55a4df523b3ef9060200161194d565b8015611a5e576000611a518383611b55565b905061076d848383611c13565b505050565b600080670de0b6b3a764000083118015611a845750678ac7230489e8000083105b611a9657670de0b6b3a7640000611abf565b670de0b6b3a76400006003611aab82866120c5565b611ab59190612120565b611abf919061209c565b905060005b6000611ad9611ad38485611989565b84611989565b9050600085611ae9836002612085565b611af3919061209c565b611afe876002612085565b611b08908461209c565b611b129086612085565b611b1c9190612120565b9050838111611b3457611b2f81856120c5565b611b3e565b611b3e84826120c5565b909350915050620f42408111611ac4575092915050565b60006001600160a01b03831615611c0b576000611b718461123c565b9050600083611b95866001600160a01b031660009081526020819052604090205490565b611b9f919061209c565b9050611bab8183612120565b611bc1906001600160401b034260141b166120c5565b6001600160a01b0386166000908152600660205260409020805467ffffffffffffffff19166001600160401b0392909216919091179055611c028183612172565b9250505061054d565b50600061054d565b4260141b60006001600160a01b03851615611c6e576001600160a01b0385166000908152600660205260409020548490611c56906001600160401b031684612065565b6001600160401b0316611c699190612085565b611c71565b60005b90508083611c7d610553565b611c8791906120c5565b611c9191906120c5565b6001600160401b03909216600160c01b026001600160c01b03929092169190911760045550505050565b600060208083528351808285015260005b81811015611ce857858101830151858201604001528201611ccc565b506000604082860101526040601f19601f8301168501019250505092915050565b80356001600160a01b0381168114611d2057600080fd5b919050565b60008060408385031215611d3857600080fd5b611d4183611d09565b946020939093013593505050565b600080600060608486031215611d6457600080fd5b611d6d84611d09565b95602085013595506040909401359392505050565b600060208284031215611d9457600080fd5b61062882611d09565b60008083601f840112611daf57600080fd5b5081356001600160401b03811115611dc657600080fd5b6020830191508360208260051b8501011115611de157600080fd5b9250929050565b600080600060408486031215611dfd57600080fd5b83356001600160401b03811115611e1357600080fd5b611e1f86828701611d9d565b909790965060209590950135949350505050565b600080600060608486031215611e4857600080fd5b611e5184611d09565b9250611e5f60208501611d09565b9150604084013590509250925092565b600080600060408486031215611e8457600080fd5b611e8d84611d09565b925060208401356001600160401b03811115611ea857600080fd5b611eb486828701611d9d565b9497909650939450505050565b600060208284031215611ed357600080fd5b5035919050565b60008060008060408587031215611ef057600080fd5b84356001600160401b0380821115611f0757600080fd5b611f1388838901611d9d565b90965094506020870135915080821115611f2c57600080fd5b50611f3987828801611d9d565b95989497509550505050565b60008060008060808587031215611f5b57600080fd5b611f6485611d09565b9350611f7260208601611d09565b93969395505050506040820135916060013590565b600080600080600080600060e0888a031215611fa257600080fd5b611fab88611d09565b9650611fb960208901611d09565b95506040880135945060608801359350608088013560ff81168114611fdd57600080fd5b9699959850939692959460a0840135945060c09093013592915050565b6000806040838503121561200d57600080fd5b50508035926020909101359150565b6000806040838503121561202f57600080fd5b61203883611d09565b915061204660208401611d09565b90509250929050565b634e487b7160e01b600052601160045260246000fd5b6001600160401b0382811682821603908082111561153d5761153d61204f565b808202811582820484141761054d5761054d61204f565b8082018082111561054d5761054d61204f565b634e487b7160e01b600052603260045260246000fd5b8181038181111561054d5761054d61204f565b6000600182016120ea576120ea61204f565b5060010190565b60006020828403121561210357600080fd5b5051919050565b634e487b7160e01b600052601260045260246000fd5b60008261212f5761212f61210a565b500490565b60006020828403121561214657600080fd5b8151801515811461062857600080fd5b6000600160ff1b820161216b5761216b61204f565b5060000390565b6000826121815761218161210a565b50069056fea264697066735822122026c09b91640dec1cb3eb49d11b88cb1b13a3df9011d7a0b72bf167c7e4f91f9164736f6c63430008140033",
  "devdoc": {
    "events": {
      "Approval(address,address,uint256)": {
        "details": "Emitted when the allowance of a `spender` for an `owner` is set by a call to `approve`. `value` is the new allowance."
      },
      "Transfer(address,address,uint256)": {
        "details": "Emitted when `value` tokens are moved from one account (`from`) to another (`to`). Note that `value` may be zero."
      }
    },
    "kind": "dev",
    "methods": {
      "allowance(address,address)": {
        "details": "See `IERC20.allowance`."
      },
      "approve(address,uint256)": {
        "details": "See `IERC20.approve`. Requirements: - `spender` cannot be the zero address."
      },
      "balanceOf(address)": {
        "details": "See `IERC20.balanceOf`."
      },
      "denyMinter(address,address[],string)": {
        "details": "Calling this function is relatively cheap thanks to the deletion of a storage slot."
      },
      "equity()": {
        "details": "Note that the equity contract technically holds both the minter reserve as well as the equity, so the minter reserve must be subtracted. All fees and other kind of income is added to the Equity contract and essentially constitutes profits attributable to the pool share holders."
      },
      "minterReserve()": {
        "details": "The minter reserve can be used to cover losses after the equity holders have been wiped out."
      },
      "registerPosition(address)": {
        "details": "It is assumed that the responsible minter that registers the position ensures that the position can be trusted."
      },
      "suggestMinter(address,uint256,uint256,string)": {
        "details": "The caller has to pay an application fee that is irrevocably lost even if the new minter is vetoed. The caller must assume that someone will veto the new minter unless there is broad consensus that the new minter adds value to the OracleFreeDollar system. Complex proposals should have application periods and applications fees above the minimum. It is assumed that over time, informal ways to coordinate on new minters emerge. The message parameter might be useful for initiating further communication. Maybe it contains a link to a website describing the proposed minter.",
        "params": {
          "_applicationFee": "The fee paid by the caller, at least MIN_FEE",
          "_applicationPeriod": "The time others have to veto the suggestion, at least MIN_APPLICATION_PERIOD",
          "_message": "An optional human readable message to everyone watching this contract",
          "_minter": "An address that is given the permission to mint OracleFreeDollars"
        }
      },
      "totalSupply()": {
        "details": "See `IERC20.totalSupply`."
      },
      "transfer(address,uint256)": {
        "details": "See `IERC20.transfer`. Requirements: - `recipient` cannot be the zero address. - the caller must have a balance of at least `amount`."
      },
      "transferFrom(address,address,uint256)": {
        "details": "See `IERC20.transferFrom`. Emits an `Approval` event indicating the updated allowance. This is not required by the EIP. See the note at the beginning of `ERC20`; Requirements: - `sender` and `recipient` cannot be the zero address. - `sender` must have a balance of at least `value`. - the caller must have allowance for `sender`'s tokens of at least `amount`."
      }
    },
    "title": "OracleFreeDollar",
    "version": 1
  },
  "userdoc": {
    "kind": "user",
    "methods": {
      "MIN_FEE()": {
        "notice": "Minimal fee and application period when suggesting a new minter."
      },
      "burn(uint256)": {
        "notice": "Anyone is allowed to burn their OFD."
      },
      "burnFrom(address,uint256)": {
        "notice": "Burn someone elses OFD."
      },
      "burnFromWithReserve(address,uint256,uint32)": {
        "notice": "Burns the target amount taking the tokens to be burned from the payer and the payer's reserve. Only use this method for tokens also minted by the caller with the same _reservePPM. Example: the calling contract has previously minted 100 OFD with a reserve ratio of 20% (i.e. 200000 ppm). To burn half of that again, the minter calls burnFrom with a target amount of 50 OFD. Assuming that reserves are only 90% covered, this call will deduct 41 OFD from the payer's balance and 9 from the reserve, while reducing the minter reserve by 10."
      },
      "burnWithReserve(uint256,uint32)": {
        "notice": "Burns the provided number of tokens plus whatever reserves are associated with that amount given the reserve requirement. The caller is only allowed to use this method for tokens also minted through the caller with the same _reservePPM amount. Example: the calling contract has previously minted 100 OFD with a reserve ratio of 20% (i.e. 200000 ppm). Now they have 41 OFD that they do not need so they decide to repay that amount. Assuming the reserves are only 90% covered, the call to burnWithReserve will burn the 41 plus 9 from the reserve, reducing the outstanding 'debt' of the caller by 50 OFD in total. This total is returned by the method so the caller knows how much less they owe."
      },
      "burnWithoutReserve(uint256,uint32)": {
        "notice": "Burn that amount without reclaiming the reserve, but freeing it up and thereby essentially donating it to the pool share holders. This can make sense in combination with 'coverLoss', i.e. when it is the pool share holders that bear the risk and depending on the outcome they make a profit or a loss. Design rule: Minters calling this method are only allowed to so for tokens amounts they previously minted with the same _reservePPM amount. For example, if someone minted 50 OFD earlier with a 20% reserve requirement (200000 ppm), they got 40 OFD and paid 10 OFD into the reserve. Now they want to repay the debt by burning 50 OFD. When doing so using this method, 50 OFD get burned and on top of that, 10 OFD previously assigned to the minter's reserved are reassigned to the pool share holders."
      },
      "calculateAssignedReserve(uint256,uint32)": {
        "notice": "Calculates the reserve attributable to someone who minted the given amount with the given reserve requirement. Under normal circumstances, this is just the reserver requirement multiplied by the amount. However, after a severe loss of capital that burned into the minter's reserve, this can also be less than that."
      },
      "calculateFreedAmount(uint256,uint32)": {
        "notice": "Calculate the amount that is freed when returning amountExcludingReserve given a reserve ratio of reservePPM, taking into account potential losses. Example values in the comments."
      },
      "constructor": {
        "notice": "Initiates the OracleFreeDollar with the provided minimum application period for new plugins in seconds, for example 10 days, i.e. 3600*24*10 = 864000"
      },
      "coverLoss(address,uint256)": {
        "notice": "Notify the OracleFreeDollar that a minter lost economic access to some coins. This does not mean that the coins are literally lost. It just means that some OFD will likely never be repaid and that in order to bring the system back into balance, the lost amount of OFD must be removed from the reserve instead. For example, if a minter printed 1 million OFD for a mortgage and the mortgage turned out to be unsound with the house only yielding 800'000 in the subsequent auction, there is a loss of 200'000 that needs to be covered by the reserve."
      },
      "denyMinter(address,address[],string)": {
        "notice": "Qualified pool share holders can deny minters during the application period."
      },
      "equity()": {
        "notice": "The amount of equity of the OracleFreeDollar system in OFD, owned by the holders of OracleFreeDollar Pool Shares."
      },
      "getPositionParent(address)": {
        "notice": "Returns the address of the minter that created this position or null if the provided address is unknown."
      },
      "isMinter(address)": {
        "notice": "Returns true if the address is an approved minter."
      },
      "mintWithReserve(address,uint256,uint32,uint32)": {
        "notice": "Mints the provided amount of OFD to the target address, automatically forwarding the minting fee and the reserve to the right place."
      },
      "minterReserve()": {
        "notice": "The reserve provided by the owners of collateralized positions."
      },
      "minters(address)": {
        "notice": "Map of minters to approval time stamps. If the time stamp is in the past, the minter contract is allowed to mint OracleFreeDollars."
      },
      "positions(address)": {
        "notice": "List of positions that are allowed to mint and the minter that registered them."
      },
      "registerPosition(address)": {
        "notice": "Allows minters to register collateralized debt positions, thereby giving them the ability to mint OracleFreeDollars."
      },
      "reserve()": {
        "notice": "The contract that holds the reserve."
      },
      "suggestMinter(address,uint256,uint256,string)": {
        "notice": "Publicly accessible method to suggest a new way of minting OracleFreeDollar."
      }
    },
    "notice": "The OracleFreeDollar (OFD) is an ERC-20 token that is designed to track the value of the American Dollar. It is not upgradable, but open to arbitrary minting plugins. These are automatically accepted if none of the qualified pool share holders casts a veto, leading to a flexible but conservative governance.",
    "version": 1
  },
  "storageLayout": {
    "storage": [
      {
        "astId": 8070,
        "contract": "contracts/OracleFreeDollar.sol:OracleFreeDollar",
        "label": "_balances",
        "offset": 0,
        "slot": "0",
        "type": "t_mapping(t_address,t_uint256)"
      },
      {
        "astId": 8076,
        "contract": "contracts/OracleFreeDollar.sol:OracleFreeDollar",
        "label": "_allowances",
        "offset": 0,
        "slot": "1",
        "type": "t_mapping(t_address,t_mapping(t_address,t_uint256))"
      },
      {
        "astId": 8084,
        "contract": "contracts/OracleFreeDollar.sol:OracleFreeDollar",
        "label": "_totalSupply",
        "offset": 0,
        "slot": "2",
        "type": "t_uint256"
      },
      {
        "astId": 8468,
        "contract": "contracts/OracleFreeDollar.sol:OracleFreeDollar",
        "label": "nonces",
        "offset": 0,
        "slot": "3",
        "type": "t_mapping(t_address,t_uint256)"
      },
      {
        "astId": 2261,
        "contract": "contracts/OracleFreeDollar.sol:OracleFreeDollar",
        "label": "minterReserveE6",
        "offset": 0,
        "slot": "4",
        "type": "t_uint256"
      },
      {
        "astId": 2266,
        "contract": "contracts/OracleFreeDollar.sol:OracleFreeDollar",
        "label": "minters",
        "offset": 0,
        "slot": "5",
        "type": "t_mapping(t_address,t_uint256)"
      },
      {
        "astId": 2271,
        "contract": "contracts/OracleFreeDollar.sol:OracleFreeDollar",
        "label": "positions",
        "offset": 0,
        "slot": "6",
        "type": "t_mapping(t_address,t_address)"
      }
    ],
    "types": {
      "t_address": {
        "encoding": "inplace",
        "label": "address",
        "numberOfBytes": "20"
      },
      "t_mapping(t_address,t_address)": {
        "encoding": "mapping",
        "key": "t_address",
        "label": "mapping(address => address)",
        "numberOfBytes": "32",
        "value": "t_address"
      },
      "t_mapping(t_address,t_mapping(t_address,t_uint256))": {
        "encoding": "mapping",
        "key": "t_address",
        "label": "mapping(address => mapping(address => uint256))",
        "numberOfBytes": "32",
        "value": "t_mapping(t_address,t_uint256)"
      },
      "t_mapping(t_address,t_uint256)": {
        "encoding": "mapping",
        "key": "t_address",
        "label": "mapping(address => uint256)",
        "numberOfBytes": "32",
        "value": "t_uint256"
      },
      "t_uint256": {
        "encoding": "inplace",
        "label": "uint256",
        "numberOfBytes": "32"
      }
    }
  }
}